{
  "_format": "hh-sol-artifact-1",
  "contractName": "Executor",
  "sourceName": "contracts/Licenses.sol",
  "abi": [
    {
      "inputs": [
        {
          "internalType": "address",
          "name": "licenseAdress",
          "type": "address"
        }
      ],
      "stateMutability": "nonpayable",
      "type": "constructor"
    },
    {
      "inputs": [
        {
          "internalType": "uint256",
          "name": "execCode",
          "type": "uint256"
        },
        {
          "internalType": "string",
          "name": "photoId",
          "type": "string"
        },
        {
          "internalType": "string",
          "name": "filePath",
          "type": "string"
        },
        {
          "internalType": "string",
          "name": "metaPath",
          "type": "string"
        },
        {
          "internalType": "address",
          "name": "owner",
          "type": "address"
        },
        {
          "internalType": "string",
          "name": "result",
          "type": "string"
        }
      ],
      "name": "addResult",
      "outputs": [],
      "stateMutability": "nonpayable",
      "type": "function"
    },
    {
      "inputs": [
        {
          "internalType": "uint256",
          "name": "execCode",
          "type": "uint256"
        }
      ],
      "name": "execCodeExist",
      "outputs": [
        {
          "internalType": "bool",
          "name": "",
          "type": "bool"
        }
      ],
      "stateMutability": "view",
      "type": "function"
    },
    {
      "inputs": [],
      "name": "getAllExecCodes",
      "outputs": [
        {
          "internalType": "uint256[]",
          "name": "",
          "type": "uint256[]"
        }
      ],
      "stateMutability": "view",
      "type": "function"
    },
    {
      "inputs": [
        {
          "internalType": "uint256",
          "name": "execCode",
          "type": "uint256"
        }
      ],
      "name": "getAllResults",
      "outputs": [
        {
          "internalType": "string[]",
          "name": "",
          "type": "string[]"
        }
      ],
      "stateMutability": "view",
      "type": "function"
    },
    {
      "inputs": [
        {
          "internalType": "uint256",
          "name": "execCode",
          "type": "uint256"
        }
      ],
      "name": "getBestResult",
      "outputs": [
        {
          "internalType": "string",
          "name": "",
          "type": "string"
        }
      ],
      "stateMutability": "view",
      "type": "function"
    },
    {
      "inputs": [
        {
          "internalType": "uint256",
          "name": "execCode",
          "type": "uint256"
        }
      ],
      "name": "getExecCodeIndex",
      "outputs": [
        {
          "internalType": "uint256",
          "name": "",
          "type": "uint256"
        }
      ],
      "stateMutability": "view",
      "type": "function"
    },
    {
      "inputs": [],
      "name": "getNumberOfExecCodes",
      "outputs": [
        {
          "internalType": "uint256",
          "name": "",
          "type": "uint256"
        }
      ],
      "stateMutability": "view",
      "type": "function"
    },
    {
      "inputs": [
        {
          "internalType": "uint256",
          "name": "execCode",
          "type": "uint256"
        },
        {
          "internalType": "string",
          "name": "result",
          "type": "string"
        }
      ],
      "name": "getResultCount",
      "outputs": [
        {
          "internalType": "uint256",
          "name": "",
          "type": "uint256"
        }
      ],
      "stateMutability": "view",
      "type": "function"
    },
    {
      "inputs": [
        {
          "internalType": "uint256",
          "name": "execCode",
          "type": "uint256"
        }
      ],
      "name": "getTotalResults",
      "outputs": [
        {
          "internalType": "uint256",
          "name": "",
          "type": "uint256"
        }
      ],
      "stateMutability": "view",
      "type": "function"
    },
    {
      "inputs": [
        {
          "internalType": "uint256",
          "name": "number",
          "type": "uint256"
        }
      ],
      "name": "halve",
      "outputs": [
        {
          "internalType": "uint256",
          "name": "",
          "type": "uint256"
        }
      ],
      "stateMutability": "pure",
      "type": "function"
    },
    {
      "inputs": [],
      "name": "licenses",
      "outputs": [
        {
          "internalType": "contract Licenses",
          "name": "",
          "type": "address"
        }
      ],
      "stateMutability": "view",
      "type": "function"
    },
    {
      "inputs": [
        {
          "internalType": "uint256",
          "name": "execCode",
          "type": "uint256"
        },
        {
          "internalType": "string",
          "name": "result",
          "type": "string"
        }
      ],
      "name": "resultExist",
      "outputs": [
        {
          "internalType": "bool",
          "name": "",
          "type": "bool"
        }
      ],
      "stateMutability": "view",
      "type": "function"
    }
  ],
  "bytecode": "0x60806040523480156200001157600080fd5b5060405162001d6538038062001d658339818101604052810190620000379190620000e8565b806000806101000a81548173ffffffffffffffffffffffffffffffffffffffff021916908373ffffffffffffffffffffffffffffffffffffffff160217905550506200011a565b600080fd5b600073ffffffffffffffffffffffffffffffffffffffff82169050919050565b6000620000b08262000083565b9050919050565b620000c281620000a3565b8114620000ce57600080fd5b50565b600081519050620000e281620000b7565b92915050565b6000602082840312156200010157620001006200007e565b5b60006200011184828501620000d1565b91505092915050565b611c3b806200012a6000396000f3fe608060405234801561001057600080fd5b50600436106100b35760003560e01c8063d29cd32211610071578063d29cd322146101c6578063d90fa572146101e2578063e6a8c96914610200578063ec23313514610230578063f732960d14610260578063fe6f61a414610290576100b3565b8062976dbc146100b857806320fb79e7146100d657806394228a9c14610106578063a3b7d49e14610136578063a949180814610166578063ac1b6df314610196575b600080fd5b6100c06102ae565b6040516100cd9190610e07565b60405180910390f35b6100f060048036038101906100eb9190610e62565b6102bb565b6040516100fd9190610e07565b60405180910390f35b610120600480360381019061011b9190610e62565b610305565b60405161012d9190610f1f565b60405180910390f35b610150600480360381019061014b9190611076565b61048f565b60405161015d91906110ed565b60405180910390f35b610180600480360381019061017b9190610e62565b610640565b60405161018d9190611214565b60405180910390f35b6101b060048036038101906101ab9190610e62565b61072f565b6040516101bd91906110ed565b60405180910390f35b6101e060048036038101906101db9190611294565b610794565b005b6101ea610b19565b6040516101f791906113f0565b60405180910390f35b61021a60048036038101906102159190610e62565b610b3d565b6040516102279190610e07565b60405180910390f35b61024a60048036038101906102459190611076565b610b5d565b6040516102579190610e07565b60405180910390f35b61027a60048036038101906102759190610e62565b610b9a565b6040516102879190610e07565b60405180910390f35b610298610bfc565b6040516102a591906114c9565b60405180910390f35b6000600180549050905090565b6000806002836102cb919061151a565b036102e4576002826102dd919061157a565b9050610300565b60016002836102f3919061157a565b6102fd91906115ab565b90505b919050565b606060006040518060400160405280600381526020017f4e614e0000000000000000000000000000000000000000000000000000000000815250905060006060600080600090505b600260008881526020019081526020016000206001018054905081101561048257600260008881526020019081526020016000206001018181548110610396576103956115df565b5b9060005260206000200180546103ab9061163d565b80601f01602080910402602001604051908101604052809291908181526020018280546103d79061163d565b80156104245780601f106103f957610100808354040283529160200191610424565b820191906000526020600020905b81548152906001019060200180831161040757829003601f168201915b50505050509250600260008881526020019081526020016000206002018360405161044f91906116aa565b90815260200160405180910390205491508382111561046f578193508294505b808061047a906116c1565b91505061034d565b5083945050505050919050565b6000606060005b6002600086815260200190815260200160002060010180549050811015610633576002600086815260200190815260200160002060010181815481106104df576104de6115df565b5b9060005260206000200180546104f49061163d565b80601f01602080910402602001604051908101604052809291908181526020018280546105209061163d565b801561056d5780601f106105425761010080835404028352916020019161056d565b820191906000526020600020905b81548152906001019060200180831161055057829003601f168201915b5050505050915060008054906101000a900473ffffffffffffffffffffffffffffffffffffffff1673ffffffffffffffffffffffffffffffffffffffff166375b8318783866040518363ffffffff1660e01b81526004016105cf929190611709565b602060405180830381865afa1580156105ec573d6000803e3d6000fd5b505050506040513d601f19601f82011682018060405250810190610610919061176c565b156106205760019250505061063a565b808061062b906116c1565b915050610496565b5060009150505b92915050565b606060026000838152602001908152602001600020600101805480602002602001604051908101604052809291908181526020016000905b828210156107245783829060005260206000200180546106979061163d565b80601f01602080910402602001604051908101604052809291908181526020018280546106c39061163d565b80156107105780601f106106e557610100808354040283529160200191610710565b820191906000526020600020905b8154815290600101906020018083116106f357829003601f168201915b505050505081526020019060010190610678565b505050509050919050565b60008060005b6001805490508110156107885760018181548110610756576107556115df565b5b906000526020600020015491508184036107755760019250505061078f565b8080610780906116c1565b915050610735565b5060009150505b919050565b60008054906101000a900473ffffffffffffffffffffffffffffffffffffffff1673ffffffffffffffffffffffffffffffffffffffff166375b83187826040518263ffffffff1660e01b81526004016107ed91906117bf565b602060405180830381865afa15801561080a573d6000803e3d6000fd5b505050506040513d601f19601f8201168201806040525081019061082e919061176c565b1561086e576040517f08c379a000000000000000000000000000000000000000000000000000000000815260040161086590611840565b60405180910390fd5b6108778661072f565b6108a55760018690806001815401808255809150506001900390600052602060002001600090919091909150555b60016002600088815260200190815260200160002060000160008282546108cc91906115ab565b925050819055506108dd868261048f565b6109675760026000878152602001908152602001600020600101819080600181540180825580915050600190039060005260206000200160009091909190915090816109299190611a02565b506001600260008881526020019081526020016000206002018260405161095091906116aa565b9081526020016040518091039020819055506109b2565b6001600260008881526020019081526020016000206002018260405161098d91906116aa565b908152602001604051809103902060008282546109aa91906115ab565b925050819055505b60008060009054906101000a900473ffffffffffffffffffffffffffffffffffffffff1673ffffffffffffffffffffffffffffffffffffffff166387a5a49f6040518163ffffffff1660e01b8152600401602060405180830381865afa158015610a20573d6000803e3d6000fd5b505050506040513d601f19601f82011682018060405250810190610a449190611ae9565b905080600260008981526020019081526020016000206000015410610b10576000610a6e88610305565b905060008054906101000a900473ffffffffffffffffffffffffffffffffffffffff1673ffffffffffffffffffffffffffffffffffffffff1663de6ee79a8989898989876040518763ffffffff1660e01b8152600401610ad396959493929190611b25565b600060405180830381600087803b158015610aed57600080fd5b505af1158015610b01573d6000803e3d6000fd5b50505050610b0e88610c54565b505b50505050505050565b60008054906101000a900473ffffffffffffffffffffffffffffffffffffffff1681565b600060026000838152602001908152602001600020600001549050919050565b60006002600084815260200190815260200160002060020182604051610b8391906116aa565b908152602001604051809103902054905092915050565b600080600090505b600180549050811015610bf05760018181548110610bc357610bc26115df565b5b90600052602060002001548303610bdd5780915050610bf7565b8080610be8906116c1565b915050610ba2565b506103e790505b919050565b60606001805480602002602001604051908101604052809291908181526020018280548015610c4a57602002820191906000526020600020905b815481526020019060010190808311610c36575b5050505050905090565b6000610c5f82610b9a565b90506001805490508110610c735750610d49565b60008190505b60018080549050610c8a9190611ba2565b811015610cf05760018082610c9f91906115ab565b81548110610cb057610caf6115df565b5b906000526020600020015460018281548110610ccf57610cce6115df565b5b90600052602060002001819055508080610ce8906116c1565b915050610c79565b506001805480610d0357610d02611bd6565b5b6001900381819060005260206000200160009055905560026000838152602001908152602001600020600080820160009055600182016000610d459190610d4c565b5050505b50565b5080546000825590600052602060002090810190610d6a9190610d6d565b50565b5b80821115610d8d5760008181610d849190610d91565b50600101610d6e565b5090565b508054610d9d9061163d565b6000825580601f10610daf5750610dce565b601f016020900490600052602060002090810190610dcd9190610dd1565b5b50565b5b80821115610dea576000816000905550600101610dd2565b5090565b6000819050919050565b610e0181610dee565b82525050565b6000602082019050610e1c6000830184610df8565b92915050565b6000604051905090565b600080fd5b600080fd5b610e3f81610dee565b8114610e4a57600080fd5b50565b600081359050610e5c81610e36565b92915050565b600060208284031215610e7857610e77610e2c565b5b6000610e8684828501610e4d565b91505092915050565b600081519050919050565b600082825260208201905092915050565b60005b83811015610ec9578082015181840152602081019050610eae565b60008484015250505050565b6000601f19601f8301169050919050565b6000610ef182610e8f565b610efb8185610e9a565b9350610f0b818560208601610eab565b610f1481610ed5565b840191505092915050565b60006020820190508181036000830152610f398184610ee6565b905092915050565b600080fd5b600080fd5b7f4e487b7100000000000000000000000000000000000000000000000000000000600052604160045260246000fd5b610f8382610ed5565b810181811067ffffffffffffffff82111715610fa257610fa1610f4b565b5b80604052505050565b6000610fb5610e22565b9050610fc18282610f7a565b919050565b600067ffffffffffffffff821115610fe157610fe0610f4b565b5b610fea82610ed5565b9050602081019050919050565b82818337600083830152505050565b600061101961101484610fc6565b610fab565b90508281526020810184848401111561103557611034610f46565b5b611040848285610ff7565b509392505050565b600082601f83011261105d5761105c610f41565b5b813561106d848260208601611006565b91505092915050565b6000806040838503121561108d5761108c610e2c565b5b600061109b85828601610e4d565b925050602083013567ffffffffffffffff8111156110bc576110bb610e31565b5b6110c885828601611048565b9150509250929050565b60008115159050919050565b6110e7816110d2565b82525050565b600060208201905061110260008301846110de565b92915050565b600081519050919050565b600082825260208201905092915050565b6000819050602082019050919050565b600082825260208201905092915050565b600061115082610e8f565b61115a8185611134565b935061116a818560208601610eab565b61117381610ed5565b840191505092915050565b600061118a8383611145565b905092915050565b6000602082019050919050565b60006111aa82611108565b6111b48185611113565b9350836020820285016111c685611124565b8060005b8581101561120257848403895281516111e3858261117e565b94506111ee83611192565b925060208a019950506001810190506111ca565b50829750879550505050505092915050565b6000602082019050818103600083015261122e818461119f565b905092915050565b600073ffffffffffffffffffffffffffffffffffffffff82169050919050565b600061126182611236565b9050919050565b61127181611256565b811461127c57600080fd5b50565b60008135905061128e81611268565b92915050565b60008060008060008060c087890312156112b1576112b0610e2c565b5b60006112bf89828a01610e4d565b965050602087013567ffffffffffffffff8111156112e0576112df610e31565b5b6112ec89828a01611048565b955050604087013567ffffffffffffffff81111561130d5761130c610e31565b5b61131989828a01611048565b945050606087013567ffffffffffffffff81111561133a57611339610e31565b5b61134689828a01611048565b935050608061135789828a0161127f565b92505060a087013567ffffffffffffffff81111561137857611377610e31565b5b61138489828a01611048565b9150509295509295509295565b6000819050919050565b60006113b66113b16113ac84611236565b611391565b611236565b9050919050565b60006113c88261139b565b9050919050565b60006113da826113bd565b9050919050565b6113ea816113cf565b82525050565b600060208201905061140560008301846113e1565b92915050565b600081519050919050565b600082825260208201905092915050565b6000819050602082019050919050565b61144081610dee565b82525050565b60006114528383611437565b60208301905092915050565b6000602082019050919050565b60006114768261140b565b6114808185611416565b935061148b83611427565b8060005b838110156114bc5781516114a38882611446565b97506114ae8361145e565b92505060018101905061148f565b5085935050505092915050565b600060208201905081810360008301526114e3818461146b565b905092915050565b7f4e487b7100000000000000000000000000000000000000000000000000000000600052601260045260246000fd5b600061152582610dee565b915061153083610dee565b9250826115405761153f6114eb565b5b828206905092915050565b7f4e487b7100000000000000000000000000000000000000000000000000000000600052601160045260246000fd5b600061158582610dee565b915061159083610dee565b9250826115a05761159f6114eb565b5b828204905092915050565b60006115b682610dee565b91506115c183610dee565b92508282019050808211156115d9576115d861154b565b5b92915050565b7f4e487b7100000000000000000000000000000000000000000000000000000000600052603260045260246000fd5b7f4e487b7100000000000000000000000000000000000000000000000000000000600052602260045260246000fd5b6000600282049050600182168061165557607f821691505b6020821081036116685761166761160e565b5b50919050565b600081905092915050565b600061168482610e8f565b61168e818561166e565b935061169e818560208601610eab565b80840191505092915050565b60006116b68284611679565b915081905092915050565b60006116cc82610dee565b91507fffffffffffffffffffffffffffffffffffffffffffffffffffffffffffffffff82036116fe576116fd61154b565b5b600182019050919050565b600060408201905081810360008301526117238185610ee6565b905081810360208301526117378184610ee6565b90509392505050565b611749816110d2565b811461175457600080fd5b50565b60008151905061176681611740565b92915050565b60006020828403121561178257611781610e2c565b5b600061179084828501611757565b91505092915050565b50565b60006117a9600083610e9a565b91506117b482611799565b600082019050919050565b600060408201905081810360008301526117d98184610ee6565b905081810360208301526117ec8161179c565b905092915050565b7f526573756c742063616e277420626520656d7074792100000000000000000000600082015250565b600061182a601683610e9a565b9150611835826117f4565b602082019050919050565b600060208201905081810360008301526118598161181d565b9050919050565b60008190508160005260206000209050919050565b60006020601f8301049050919050565b600082821b905092915050565b6000600883026118c27fffffffffffffffffffffffffffffffffffffffffffffffffffffffffffffffff82611885565b6118cc8683611885565b95508019841693508086168417925050509392505050565b60006118ff6118fa6118f584610dee565b611391565b610dee565b9050919050565b6000819050919050565b611919836118e4565b61192d61192582611906565b848454611892565b825550505050565b600090565b611942611935565b61194d818484611910565b505050565b5b818110156119715761196660008261193a565b600181019050611953565b5050565b601f8211156119b65761198781611860565b61199084611875565b8101602085101561199f578190505b6119b36119ab85611875565b830182611952565b50505b505050565b600082821c905092915050565b60006119d9600019846008026119bb565b1980831691505092915050565b60006119f283836119c8565b9150826002028217905092915050565b611a0b82610e8f565b67ffffffffffffffff811115611a2457611a23610f4b565b5b611a2e825461163d565b611a39828285611975565b600060209050601f831160018114611a6c5760008415611a5a578287015190505b611a6485826119e6565b865550611acc565b601f198416611a7a86611860565b60005b82811015611aa257848901518255600182019150602085019450602081019050611a7d565b86831015611abf5784890151611abb601f8916826119c8565b8355505b6001600288020188555050505b505050505050565b600081519050611ae381610e36565b92915050565b600060208284031215611aff57611afe610e2c565b5b6000611b0d84828501611ad4565b91505092915050565b611b1f81611256565b82525050565b600060c082019050611b3a6000830189610df8565b8181036020830152611b4c8188610ee6565b90508181036040830152611b608187610ee6565b90508181036060830152611b748186610ee6565b9050611b836080830185611b16565b81810360a0830152611b958184610ee6565b9050979650505050505050565b6000611bad82610dee565b9150611bb883610dee565b9250828203905081811115611bd057611bcf61154b565b5b92915050565b7f4e487b7100000000000000000000000000000000000000000000000000000000600052603160045260246000fdfea2646970667358221220107d10e8e37979896095f9260d07471aead8b69d4db882e8d9cfc312adcd44ab64736f6c63430008110033",
  "linkReferences": {},
  "deployedLinkReferences": {}
}