{
  "_format": "hh-sol-artifact-1",
  "contractName": "Licenses",
  "sourceName": "contracts/Licenses.sol",
  "abi": [
    {
      "inputs": [
        {
          "internalType": "uint256",
          "name": "_licenseFee",
          "type": "uint256"
        }
      ],
      "stateMutability": "nonpayable",
      "type": "constructor"
    },
    {
      "anonymous": false,
      "inputs": [
        {
          "indexed": false,
          "internalType": "uint256",
          "name": "execCode",
          "type": "uint256"
        }
      ],
      "name": "ExecutionFinised",
      "type": "event"
    },
    {
      "inputs": [
        {
          "internalType": "string",
          "name": "photoId",
          "type": "string"
        },
        {
          "internalType": "string",
          "name": "licenseId",
          "type": "string"
        }
      ],
      "name": "addLicense",
      "outputs": [],
      "stateMutability": "payable",
      "type": "function"
    },
    {
      "inputs": [
        {
          "internalType": "string",
          "name": "photoId",
          "type": "string"
        },
        {
          "internalType": "string",
          "name": "filePath",
          "type": "string"
        },
        {
          "internalType": "string",
          "name": "metaPath",
          "type": "string"
        },
        {
          "internalType": "address",
          "name": "owner",
          "type": "address"
        }
      ],
      "name": "addPhoto",
      "outputs": [],
      "stateMutability": "nonpayable",
      "type": "function"
    },
    {
      "inputs": [
        {
          "internalType": "string",
          "name": "photoId",
          "type": "string"
        },
        {
          "internalType": "string",
          "name": "licenseId",
          "type": "string"
        }
      ],
      "name": "addReference",
      "outputs": [],
      "stateMutability": "nonpayable",
      "type": "function"
    },
    {
      "inputs": [
        {
          "internalType": "string",
          "name": "str1",
          "type": "string"
        },
        {
          "internalType": "string",
          "name": "str2",
          "type": "string"
        }
      ],
      "name": "compareString",
      "outputs": [
        {
          "internalType": "bool",
          "name": "",
          "type": "bool"
        }
      ],
      "stateMutability": "pure",
      "type": "function"
    },
    {
      "inputs": [],
      "name": "getAllHostIds",
      "outputs": [
        {
          "internalType": "uint256[]",
          "name": "",
          "type": "uint256[]"
        }
      ],
      "stateMutability": "view",
      "type": "function"
    },
    {
      "inputs": [],
      "name": "getAllHostUrls",
      "outputs": [
        {
          "internalType": "string[]",
          "name": "",
          "type": "string[]"
        }
      ],
      "stateMutability": "view",
      "type": "function"
    },
    {
      "inputs": [],
      "name": "getAllLicenseIds",
      "outputs": [
        {
          "internalType": "string[]",
          "name": "",
          "type": "string[]"
        }
      ],
      "stateMutability": "view",
      "type": "function"
    },
    {
      "inputs": [],
      "name": "getAllLicensedPhotoIds",
      "outputs": [
        {
          "internalType": "string[]",
          "name": "",
          "type": "string[]"
        }
      ],
      "stateMutability": "view",
      "type": "function"
    },
    {
      "inputs": [],
      "name": "getAllPhotoIds",
      "outputs": [
        {
          "internalType": "string[]",
          "name": "",
          "type": "string[]"
        }
      ],
      "stateMutability": "view",
      "type": "function"
    },
    {
      "inputs": [],
      "name": "getBalance",
      "outputs": [
        {
          "internalType": "uint256",
          "name": "",
          "type": "uint256"
        }
      ],
      "stateMutability": "view",
      "type": "function"
    },
    {
      "inputs": [
        {
          "internalType": "uint256",
          "name": "execCode",
          "type": "uint256"
        }
      ],
      "name": "getFinalResult",
      "outputs": [
        {
          "internalType": "string",
          "name": "",
          "type": "string"
        }
      ],
      "stateMutability": "view",
      "type": "function"
    },
    {
      "inputs": [],
      "name": "getLicenseFee",
      "outputs": [
        {
          "internalType": "uint256",
          "name": "",
          "type": "uint256"
        }
      ],
      "stateMutability": "view",
      "type": "function"
    },
    {
      "inputs": [
        {
          "internalType": "string",
          "name": "photoId",
          "type": "string"
        }
      ],
      "name": "getLicenseId",
      "outputs": [
        {
          "internalType": "string",
          "name": "",
          "type": "string"
        }
      ],
      "stateMutability": "view",
      "type": "function"
    },
    {
      "inputs": [
        {
          "internalType": "string",
          "name": "licenseId",
          "type": "string"
        }
      ],
      "name": "getLicenseInfo",
      "outputs": [
        {
          "components": [
            {
              "internalType": "address",
              "name": "owner",
              "type": "address"
            },
            {
              "internalType": "string",
              "name": "originImageId",
              "type": "string"
            },
            {
              "internalType": "uint256",
              "name": "createdTime",
              "type": "uint256"
            }
          ],
          "internalType": "struct Licenses.License",
          "name": "",
          "type": "tuple"
        }
      ],
      "stateMutability": "view",
      "type": "function"
    },
    {
      "inputs": [
        {
          "internalType": "string",
          "name": "photoId",
          "type": "string"
        }
      ],
      "name": "getMetaHash",
      "outputs": [
        {
          "internalType": "string",
          "name": "",
          "type": "string"
        }
      ],
      "stateMutability": "view",
      "type": "function"
    },
    {
      "inputs": [],
      "name": "getMyBalance",
      "outputs": [
        {
          "internalType": "uint256",
          "name": "",
          "type": "uint256"
        }
      ],
      "stateMutability": "view",
      "type": "function"
    },
    {
      "inputs": [],
      "name": "getMyPhotoIds",
      "outputs": [
        {
          "internalType": "string[]",
          "name": "",
          "type": "string[]"
        }
      ],
      "stateMutability": "view",
      "type": "function"
    },
    {
      "inputs": [],
      "name": "getNumberOfHosts",
      "outputs": [
        {
          "internalType": "uint256",
          "name": "",
          "type": "uint256"
        }
      ],
      "stateMutability": "view",
      "type": "function"
    },
    {
      "inputs": [
        {
          "internalType": "string",
          "name": "photoId",
          "type": "string"
        }
      ],
      "name": "getPhotoHash",
      "outputs": [
        {
          "internalType": "string",
          "name": "",
          "type": "string"
        }
      ],
      "stateMutability": "view",
      "type": "function"
    },
    {
      "inputs": [
        {
          "internalType": "string",
          "name": "photoId",
          "type": "string"
        },
        {
          "internalType": "string[]",
          "name": "photoIdList",
          "type": "string[]"
        }
      ],
      "name": "getPhotoIndex",
      "outputs": [
        {
          "internalType": "uint256",
          "name": "",
          "type": "uint256"
        }
      ],
      "stateMutability": "pure",
      "type": "function"
    },
    {
      "inputs": [
        {
          "internalType": "string",
          "name": "photoId",
          "type": "string"
        }
      ],
      "name": "getPhotoInfo",
      "outputs": [
        {
          "components": [
            {
              "internalType": "string",
              "name": "filePath",
              "type": "string"
            },
            {
              "internalType": "string",
              "name": "metaPath",
              "type": "string"
            },
            {
              "internalType": "address",
              "name": "owner",
              "type": "address"
            },
            {
              "internalType": "uint256",
              "name": "uploadedTime",
              "type": "uint256"
            }
          ],
          "internalType": "struct Licenses.Photo",
          "name": "",
          "type": "tuple"
        }
      ],
      "stateMutability": "view",
      "type": "function"
    },
    {
      "inputs": [
        {
          "internalType": "string",
          "name": "photoId",
          "type": "string"
        }
      ],
      "name": "getPhotoLicenseInfo",
      "outputs": [
        {
          "components": [
            {
              "internalType": "address",
              "name": "owner",
              "type": "address"
            },
            {
              "internalType": "string",
              "name": "originImageId",
              "type": "string"
            },
            {
              "internalType": "uint256",
              "name": "createdTime",
              "type": "uint256"
            }
          ],
          "internalType": "struct Licenses.License",
          "name": "",
          "type": "tuple"
        }
      ],
      "stateMutability": "view",
      "type": "function"
    },
    {
      "inputs": [],
      "name": "getTotalLicense",
      "outputs": [
        {
          "internalType": "uint256",
          "name": "",
          "type": "uint256"
        }
      ],
      "stateMutability": "view",
      "type": "function"
    },
    {
      "inputs": [],
      "name": "getTotalPhotos",
      "outputs": [
        {
          "internalType": "uint256",
          "name": "",
          "type": "uint256"
        }
      ],
      "stateMutability": "view",
      "type": "function"
    },
    {
      "inputs": [
        {
          "internalType": "string",
          "name": "licenseId",
          "type": "string"
        }
      ],
      "name": "licenseIdExist",
      "outputs": [
        {
          "internalType": "bool",
          "name": "",
          "type": "bool"
        }
      ],
      "stateMutability": "view",
      "type": "function"
    },
    {
      "inputs": [
        {
          "internalType": "string",
          "name": "photoId",
          "type": "string"
        }
      ],
      "name": "photoIdExist",
      "outputs": [
        {
          "internalType": "bool",
          "name": "",
          "type": "bool"
        }
      ],
      "stateMutability": "view",
      "type": "function"
    },
    {
      "inputs": [
        {
          "internalType": "string",
          "name": "url",
          "type": "string"
        }
      ],
      "name": "registerHost",
      "outputs": [],
      "stateMutability": "nonpayable",
      "type": "function"
    },
    {
      "inputs": [
        {
          "internalType": "string",
          "name": "photoId",
          "type": "string"
        }
      ],
      "name": "removePhoto",
      "outputs": [],
      "stateMutability": "nonpayable",
      "type": "function"
    },
    {
      "inputs": [
        {
          "internalType": "uint256",
          "name": "execCode",
          "type": "uint256"
        },
        {
          "internalType": "string",
          "name": "photoId",
          "type": "string"
        },
        {
          "internalType": "string",
          "name": "filePath",
          "type": "string"
        },
        {
          "internalType": "string",
          "name": "metaPath",
          "type": "string"
        },
        {
          "internalType": "address",
          "name": "owner",
          "type": "address"
        },
        {
          "internalType": "string",
          "name": "result",
          "type": "string"
        }
      ],
      "name": "setResult",
      "outputs": [],
      "stateMutability": "nonpayable",
      "type": "function"
    },
    {
      "inputs": [],
      "name": "withdraw",
      "outputs": [],
      "stateMutability": "nonpayable",
      "type": "function"
    }
  ],
  "bytecode": "0x60806040523480156200001157600080fd5b5060405162003e9038038062003e908339818101604052810190620000379190620000c6565b33600360006101000a81548173ffffffffffffffffffffffffffffffffffffffff021916908373ffffffffffffffffffffffffffffffffffffffff1602179055508060048190555050620000f8565b600080fd5b6000819050919050565b620000a0816200008b565b8114620000ac57600080fd5b50565b600081519050620000c08162000095565b92915050565b600060208284031215620000df57620000de62000086565b5b6000620000ef84828501620000af565b91505092915050565b613d8880620001086000396000f3fe6080604052600436106101cd5760003560e01c806375b83187116100f75780639fb5f67b11610095578063a96b3f0d11610064578063a96b3f0d146106cb578063c06f4c15146106f6578063dde91d2114610721578063de6ee79a1461074c576101cd565b80639fb5f67b1461060d5780639fe2466a14610638578063a45bec8c14610663578063a706b5531461068e576101cd565b806387a5a49f116100d157806387a5a49f146105515780638911d8611461057c57806392612a0c146105a55780639e15e145146105e2576101cd565b806375b83187146104ac57806376925510146104e95780637865da2a14610526576101cd565b806341f1fca91161016f578063580e39a71161013e578063580e39a7146103d95780635e27820d146104165780636a70da44146104535780636a83ee2214610490576101cd565b806341f1fca91461031f57806345fe95f81461034857806346950114146103715780634c738909146103ae576101cd565b80633b82ea40116101ab5780633b82ea40146102635780633c51b1451461028e5780633ccfd60b146102cb5780634067544a146102e2576101cd565b806312065fe0146101d25780632336c87f146101fd57806325c1a01e14610226575b600080fd5b3480156101de57600080fd5b506101e7610775565b6040516101f4919061275a565b60405180910390f35b34801561020957600080fd5b50610224600480360381019061021f919061292d565b61077d565b005b34801561023257600080fd5b5061024d600480360381019061024891906129e8565b610a53565b60405161025a9190612ab0565b60405180910390f35b34801561026f57600080fd5b50610278610a69565b6040516102859190612bde565b60405180910390f35b34801561029a57600080fd5b506102b560048036038101906102b091906129e8565b610bc8565b6040516102c29190612c1b565b60405180910390f35b3480156102d757600080fd5b506102e0610cbe565b005b3480156102ee57600080fd5b50610309600480360381019061030491906129e8565b610dfc565b6040516103169190612ab0565b60405180910390f35b34801561032b57600080fd5b50610346600480360381019061034191906129e8565b610e12565b005b34801561035457600080fd5b5061036f600480360381019061036a91906129e8565b611474565b005b34801561037d57600080fd5b50610398600480360381019061039391906129e8565b6115ad565b6040516103a59190612ab0565b60405180910390f35b3480156103ba57600080fd5b506103c361165d565b6040516103d0919061275a565b60405180910390f35b3480156103e557600080fd5b5061040060048036038101906103fb91906129e8565b61167c565b60405161040d9190612cbe565b60405180910390f35b34801561042257600080fd5b5061043d600480360381019061043891906129e8565b611838565b60405161044a9190612d30565b60405180910390f35b34801561045f57600080fd5b5061047a600480360381019061047591906129e8565b611962565b6040516104879190612c1b565b60405180910390f35b6104aa60048036038101906104a59190612d52565b611a58565b005b3480156104b857600080fd5b506104d360048036038101906104ce9190612d52565b611d0f565b6040516104e09190612c1b565b60405180910390f35b3480156104f557600080fd5b50610510600480360381019061050b9190612eb0565b611d68565b60405161051d919061275a565b60405180910390f35b34801561053257600080fd5b5061053b611dcb565b6040516105489190612bde565b60405180910390f35b34801561055d57600080fd5b50610566611ea4565b604051610573919061275a565b60405180910390f35b34801561058857600080fd5b506105a3600480360381019061059e9190612d52565b611eb1565b005b3480156105b157600080fd5b506105cc60048036038101906105c791906129e8565b611fdb565b6040516105d99190612d30565b60405180910390f35b3480156105ee57600080fd5b506105f761210d565b6040516106049190612bde565b60405180910390f35b34801561061957600080fd5b50610622612223565b60405161062f919061275a565b60405180910390f35b34801561064457600080fd5b5061064d61222d565b60405161065a9190612fd7565b60405180910390f35b34801561066f57600080fd5b50610678612285565b6040516106859190612bde565b60405180910390f35b34801561069a57600080fd5b506106b560048036038101906106b09190613025565b61235e565b6040516106c29190612ab0565b60405180910390f35b3480156106d757600080fd5b506106e0612403565b6040516106ed919061275a565b60405180910390f35b34801561070257600080fd5b5061070b612410565b604051610718919061275a565b60405180910390f35b34801561072d57600080fd5b5061073661241c565b6040516107439190612bde565b60405180910390f35b34801561075857600080fd5b50610773600480360381019061076e9190613052565b612585565b005b600047905090565b6107968460405180602001604052806000815250611d0f565b156107d6576040517f08c379a00000000000000000000000000000000000000000000000000000000081526004016107cd9061319b565b60405180910390fd5b6107ef8360405180602001604052806000815250611d0f565b1561082f576040517f08c379a000000000000000000000000000000000000000000000000000000000815260040161082690613207565b60405180910390fd5b6108488260405180602001604052806000815250611d0f565b15610888576040517f08c379a000000000000000000000000000000000000000000000000000000000815260040161087f90613273565b60405180910390fd5b61089184610bc8565b156108d1576040517f08c379a00000000000000000000000000000000000000000000000000000000081526004016108c8906132df565b60405180910390fd5b600084908060018154018082558091505060019003906000526020600020016000909190919091509081610905919061350b565b5060405180608001604052808481526020018381526020018273ffffffffffffffffffffffffffffffffffffffff1681526020014281525060058560405161094d9190613619565b90815260200160405180910390206000820151816000019081610970919061350b565b506020820151816001019081610986919061350b565b5060408201518160020160006101000a81548173ffffffffffffffffffffffffffffffffffffffff021916908373ffffffffffffffffffffffffffffffffffffffff16021790555060608201518160030155905050600860008273ffffffffffffffffffffffffffffffffffffffff1673ffffffffffffffffffffffffffffffffffffffff16815260200190815260200160002084908060018154018082558091505060019003906000526020600020016000909190919091509081610a4c919061350b565b5050505050565b6060610a5e8261167c565b602001519050919050565b6060600060028054905067ffffffffffffffff811115610a8c57610a8b6127a4565b5b604051908082528060200260200182016040528015610abf57816020015b6060815260200190600190039081610aaa5790505b50905060005b600280549050811015610bc0576009600060028381548110610aea57610ae9613630565b5b906000526020600020015481526020019081526020016000206001018054610b119061332e565b80601f0160208091040260200160405190810160405280929190818152602001828054610b3d9061332e565b8015610b8a5780601f10610b5f57610100808354040283529160200191610b8a565b820191906000526020600020905b815481529060010190602001808311610b6d57829003601f168201915b5050505050828281518110610ba257610ba1613630565b5b60200260200101819052508080610bb89061368e565b915050610ac5565b508091505090565b6000606060005b600080549050811015610cb25760008181548110610bf057610bef613630565b5b906000526020600020018054610c059061332e565b80601f0160208091040260200160405190810160405280929190818152602001828054610c319061332e565b8015610c7e5780601f10610c5357610100808354040283529160200191610c7e565b820191906000526020600020905b815481529060010190602001808311610c6157829003601f168201915b50505050509150610c8f8285611d0f565b15610c9f57600192505050610cb9565b8080610caa9061368e565b915050610bcf565b5060009150505b919050565b600360009054906101000a900473ffffffffffffffffffffffffffffffffffffffff1673ffffffffffffffffffffffffffffffffffffffff163373ffffffffffffffffffffffffffffffffffffffff1614610d4e576040517f08c379a0000000000000000000000000000000000000000000000000000000008152600401610d4590613722565b60405180910390fd5b60004711610d91576040517f08c379a0000000000000000000000000000000000000000000000000000000008152600401610d889061378e565b60405180910390fd5b600360009054906101000a900473ffffffffffffffffffffffffffffffffffffffff1673ffffffffffffffffffffffffffffffffffffffff166108fc479081150290604051600060405180830381858888f19350505050158015610df9573d6000803e3d6000fd5b50565b6060610e078261167c565b600001519050919050565b600581604051610e229190613619565b908152602001604051809103902060020160009054906101000a900473ffffffffffffffffffffffffffffffffffffffff1673ffffffffffffffffffffffffffffffffffffffff163373ffffffffffffffffffffffffffffffffffffffff1614610ec1576040517f08c379a0000000000000000000000000000000000000000000000000000000008152600401610eb8906137fa565b60405180910390fd5b610ed7610ecd82611fdb565b6020015182611d0f565b15610f17576040517f08c379a0000000000000000000000000000000000000000000000000000000008152600401610f0e90613866565b60405180910390fd5b600781604051610f279190613619565b90815260200160405180910390206000610f41919061266f565b600581604051610f519190613619565b908152602001604051809103902060008082016000610f70919061266f565b600182016000610f80919061266f565b6002820160006101000a81549073ffffffffffffffffffffffffffffffffffffffff021916905560038201600090555050600061108e826000805480602002602001604051908101604052809291908181526020016000905b82821015611085578382906000526020600020018054610ff89061332e565b80601f01602080910402602001604051908101604052809291908181526020018280546110249061332e565b80156110715780601f1061104657610100808354040283529160200191611071565b820191906000526020600020905b81548152906001019060200180831161105457829003601f168201915b505050505081526020019060010190610fd9565b50505050611d68565b905060008054905081106110a25750611471565b60008190505b60016000805490506110ba9190613886565b8110156111295760006001826110d091906138ba565b815481106110e1576110e0613630565b5b90600052602060002001600082815481106110ff576110fe613630565b5b9060005260206000200190816111159190613919565b5080806111219061368e565b9150506110a8565b50600080548061113c5761113b613a01565b5b600190038181906000526020600020016000611158919061266f565b905561127282600860003373ffffffffffffffffffffffffffffffffffffffff1673ffffffffffffffffffffffffffffffffffffffff168152602001908152602001600020805480602002602001604051908101604052809291908181526020016000905b828210156112695783829060005260206000200180546111dc9061332e565b80601f01602080910402602001604051908101604052809291908181526020018280546112089061332e565b80156112555780601f1061122a57610100808354040283529160200191611255565b820191906000526020600020905b81548152906001019060200180831161123857829003601f168201915b5050505050815260200190600101906111bd565b50505050611d68565b9050600860003373ffffffffffffffffffffffffffffffffffffffff1673ffffffffffffffffffffffffffffffffffffffff1681526020019081526020016000208054905081106112c35750611471565b60008190505b6001600860003373ffffffffffffffffffffffffffffffffffffffff1673ffffffffffffffffffffffffffffffffffffffff168152602001908152602001600020805490506113189190613886565b81101561140157600860003373ffffffffffffffffffffffffffffffffffffffff1673ffffffffffffffffffffffffffffffffffffffff16815260200190815260200160002060018261136b91906138ba565b8154811061137c5761137b613630565b5b90600052602060002001600860003373ffffffffffffffffffffffffffffffffffffffff1673ffffffffffffffffffffffffffffffffffffffff16815260200190815260200160002082815481106113d7576113d6613630565b5b9060005260206000200190816113ed9190613919565b5080806113f99061368e565b9150506112c9565b50600860003373ffffffffffffffffffffffffffffffffffffffff1673ffffffffffffffffffffffffffffffffffffffff16815260200190815260200160002080548061145157611450613a01565b5b60019003818190600052602060002001600061146d919061266f565b9055505b50565b61148d8160405180602001604052806000815250611d0f565b156114cd576040517f08c379a00000000000000000000000000000000000000000000000000000000081526004016114c490613a7c565b60405180910390fd5b6000429050600281908060018154018082558091505060019003906000526020600020016000909190919091505560405180606001604052803373ffffffffffffffffffffffffffffffffffffffff168152602001838152602001428152506009600083815260200190815260200160002060008201518160000160006101000a81548173ffffffffffffffffffffffffffffffffffffffff021916908373ffffffffffffffffffffffffffffffffffffffff160217905550602082015181600101908161159b919061350b565b50604082015181600201559050505050565b60606007826040516115bf9190613619565b908152602001604051809103902080546115d89061332e565b80601f01602080910402602001604051908101604052809291908181526020018280546116049061332e565b80156116515780601f1061162657610100808354040283529160200191611651565b820191906000526020600020905b81548152906001019060200180831161163457829003601f168201915b50505050509050919050565b60003373ffffffffffffffffffffffffffffffffffffffff1631905090565b6116846126af565b6005826040516116949190613619565b90815260200160405180910390206040518060800160405290816000820180546116bd9061332e565b80601f01602080910402602001604051908101604052809291908181526020018280546116e99061332e565b80156117365780601f1061170b57610100808354040283529160200191611736565b820191906000526020600020905b81548152906001019060200180831161171957829003601f168201915b5050505050815260200160018201805461174f9061332e565b80601f016020809104026020016040519081016040528092919081815260200182805461177b9061332e565b80156117c85780601f1061179d576101008083540402835291602001916117c8565b820191906000526020600020905b8154815290600101906020018083116117ab57829003601f168201915b505050505081526020016002820160009054906101000a900473ffffffffffffffffffffffffffffffffffffffff1673ffffffffffffffffffffffffffffffffffffffff1673ffffffffffffffffffffffffffffffffffffffff1681526020016003820154815250509050919050565b6118406126ed565b6006826040516118509190613619565b90815260200160405180910390206040518060600160405290816000820160009054906101000a900473ffffffffffffffffffffffffffffffffffffffff1673ffffffffffffffffffffffffffffffffffffffff1673ffffffffffffffffffffffffffffffffffffffff1681526020016001820180546118cf9061332e565b80601f01602080910402602001604051908101604052809291908181526020018280546118fb9061332e565b80156119485780601f1061191d57610100808354040283529160200191611948565b820191906000526020600020905b81548152906001019060200180831161192b57829003601f168201915b505050505081526020016002820154815250509050919050565b6000606060005b600180549050811015611a4c576001818154811061198a57611989613630565b5b90600052602060002001805461199f9061332e565b80601f01602080910402602001604051908101604052809291908181526020018280546119cb9061332e565b8015611a185780601f106119ed57610100808354040283529160200191611a18565b820191906000526020600020905b8154815290600101906020018083116119fb57829003601f168201915b50505050509150611a298285611d0f565b15611a3957600192505050611a53565b8080611a449061368e565b915050611969565b5060009150505b919050565b611a718160405180602001604052806000815250611d0f565b15611ab1576040517f08c379a0000000000000000000000000000000000000000000000000000000008152600401611aa890613ae8565b60405180910390fd5b611aca8260405180602001604052806000815250611d0f565b15611b0a576040517f08c379a0000000000000000000000000000000000000000000000000000000008152600401611b019061319b565b60405180910390fd5b611b1381611962565b15611b53576040517f08c379a0000000000000000000000000000000000000000000000000000000008152600401611b4a90613b54565b60405180910390fd5b343373ffffffffffffffffffffffffffffffffffffffff16311015611bad576040517f08c379a0000000000000000000000000000000000000000000000000000000008152600401611ba490613bc0565b60405180910390fd5b6004543414611bf1576040517f08c379a0000000000000000000000000000000000000000000000000000000008152600401611be890613c2c565b60405180910390fd5b600181908060018154018082558091505060019003906000526020600020016000909190919091509081611c25919061350b565b5080600783604051611c379190613619565b90815260200160405180910390209081611c51919061350b565b5060405180606001604052803373ffffffffffffffffffffffffffffffffffffffff16815260200183815260200142815250600682604051611c939190613619565b908152602001604051809103902060008201518160000160006101000a81548173ffffffffffffffffffffffffffffffffffffffff021916908373ffffffffffffffffffffffffffffffffffffffff1602179055506020820151816001019081611cfd919061350b565b50604082015181600201559050505050565b600081604051602001611d229190613619565b6040516020818303038152906040528051906020012083604051602001611d499190613619565b6040516020818303038152906040528051906020012014905092915050565b600080600090505b8251811015611dbe57611d9d84848381518110611d9057611d8f613630565b5b6020026020010151611d0f565b15611dab5780915050611dc5565b8080611db69061368e565b915050611d70565b506103e790505b92915050565b60606001805480602002602001604051908101604052809291908181526020016000905b82821015611e9b578382906000526020600020018054611e0e9061332e565b80601f0160208091040260200160405190810160405280929190818152602001828054611e3a9061332e565b8015611e875780601f10611e5c57610100808354040283529160200191611e87565b820191906000526020600020905b815481529060010190602001808311611e6a57829003601f168201915b505050505081526020019060010190611def565b50505050905090565b6000600280549050905090565b611eca8160405180602001604052806000815250611d0f565b15611f0a576040517f08c379a0000000000000000000000000000000000000000000000000000000008152600401611f0190613ae8565b60405180910390fd5b611f238260405180602001604052806000815250611d0f565b15611f63576040517f08c379a0000000000000000000000000000000000000000000000000000000008152600401611f5a9061319b565b60405180910390fd5b611f6c81611962565b611fab576040517f08c379a0000000000000000000000000000000000000000000000000000000008152600401611fa290613c98565b60405180910390fd5b80600783604051611fbc9190613619565b90815260200160405180910390209081611fd6919061350b565b505050565b611fe36126ed565b6006611fee836115ad565b604051611ffb9190613619565b90815260200160405180910390206040518060600160405290816000820160009054906101000a900473ffffffffffffffffffffffffffffffffffffffff1673ffffffffffffffffffffffffffffffffffffffff1673ffffffffffffffffffffffffffffffffffffffff16815260200160018201805461207a9061332e565b80601f01602080910402602001604051908101604052809291908181526020018280546120a69061332e565b80156120f35780601f106120c8576101008083540402835291602001916120f3565b820191906000526020600020905b8154815290600101906020018083116120d657829003601f168201915b505050505081526020016002820154815250509050919050565b6060600860003373ffffffffffffffffffffffffffffffffffffffff1673ffffffffffffffffffffffffffffffffffffffff168152602001908152602001600020805480602002602001604051908101604052809291908181526020016000905b8282101561221a57838290600052602060002001805461218d9061332e565b80601f01602080910402602001604051908101604052809291908181526020018280546121b99061332e565b80156122065780601f106121db57610100808354040283529160200191612206565b820191906000526020600020905b8154815290600101906020018083116121e957829003601f168201915b50505050508152602001906001019061216e565b50505050905090565b6000600454905090565b6060600280548060200260200160405190810160405280929190818152602001828054801561227b57602002820191906000526020600020905b815481526020019060010190808311612267575b5050505050905090565b60606000805480602002602001604051908101604052809291908181526020016000905b828210156123555783829060005260206000200180546122c89061332e565b80601f01602080910402602001604051908101604052809291908181526020018280546122f49061332e565b80156123415780601f1061231657610100808354040283529160200191612341565b820191906000526020600020905b81548152906001019060200180831161232457829003601f168201915b5050505050815260200190600101906122a9565b50505050905090565b6060600a6000838152602001908152602001600020805461237e9061332e565b80601f01602080910402602001604051908101604052809291908181526020018280546123aa9061332e565b80156123f75780601f106123cc576101008083540402835291602001916123f7565b820191906000526020600020905b8154815290600101906020018083116123da57829003601f168201915b50505050509050919050565b6000600180549050905090565b60008080549050905090565b6060600060018054905067ffffffffffffffff81111561243f5761243e6127a4565b5b60405190808252806020026020018201604052801561247257816020015b606081526020019060019003908161245d5790505b50905060005b60018054905081101561257d5760066001828154811061249b5761249a613630565b5b906000526020600020016040516124b29190613d3b565b908152602001604051809103902060010180546124ce9061332e565b80601f01602080910402602001604051908101604052809291908181526020018280546124fa9061332e565b80156125475780601f1061251c57610100808354040283529160200191612547565b820191906000526020600020905b81548152906001019060200180831161252a57829003601f168201915b505050505082828151811061255f5761255e613630565b5b602002602001018190525080806125759061368e565b915050612478565b508091505090565b80600a600088815260200190815260200160002090816125a5919061350b565b506125b28585858561077d565b6125f1816040518060400160405280600281526020017f4f4b000000000000000000000000000000000000000000000000000000000000815250611d0f565b612630576000612600826115ad565b9050806007876040516126139190613619565b9081526020016040518091039020908161262d919061350b565b50505b7f644eef5c58551452c301a12eaa350868ed706ab86f28361d63880c06f8b76be28660405161265f919061275a565b60405180910390a1505050505050565b50805461267b9061332e565b6000825580601f1061268d57506126ac565b601f0160209004906000526020600020908101906126ab9190612724565b5b50565b60405180608001604052806060815260200160608152602001600073ffffffffffffffffffffffffffffffffffffffff168152602001600081525090565b6040518060600160405280600073ffffffffffffffffffffffffffffffffffffffff16815260200160608152602001600081525090565b5b8082111561273d576000816000905550600101612725565b5090565b6000819050919050565b61275481612741565b82525050565b600060208201905061276f600083018461274b565b92915050565b6000604051905090565b600080fd5b600080fd5b600080fd5b600080fd5b6000601f19601f8301169050919050565b7f4e487b7100000000000000000000000000000000000000000000000000000000600052604160045260246000fd5b6127dc82612793565b810181811067ffffffffffffffff821117156127fb576127fa6127a4565b5b80604052505050565b600061280e612775565b905061281a82826127d3565b919050565b600067ffffffffffffffff82111561283a576128396127a4565b5b61284382612793565b9050602081019050919050565b82818337600083830152505050565b600061287261286d8461281f565b612804565b90508281526020810184848401111561288e5761288d61278e565b5b612899848285612850565b509392505050565b600082601f8301126128b6576128b5612789565b5b81356128c684826020860161285f565b91505092915050565b600073ffffffffffffffffffffffffffffffffffffffff82169050919050565b60006128fa826128cf565b9050919050565b61290a816128ef565b811461291557600080fd5b50565b60008135905061292781612901565b92915050565b600080600080608085870312156129475761294661277f565b5b600085013567ffffffffffffffff81111561296557612964612784565b5b612971878288016128a1565b945050602085013567ffffffffffffffff81111561299257612991612784565b5b61299e878288016128a1565b935050604085013567ffffffffffffffff8111156129bf576129be612784565b5b6129cb878288016128a1565b92505060606129dc87828801612918565b91505092959194509250565b6000602082840312156129fe576129fd61277f565b5b600082013567ffffffffffffffff811115612a1c57612a1b612784565b5b612a28848285016128a1565b91505092915050565b600081519050919050565b600082825260208201905092915050565b60005b83811015612a6b578082015181840152602081019050612a50565b60008484015250505050565b6000612a8282612a31565b612a8c8185612a3c565b9350612a9c818560208601612a4d565b612aa581612793565b840191505092915050565b60006020820190508181036000830152612aca8184612a77565b905092915050565b600081519050919050565b600082825260208201905092915050565b6000819050602082019050919050565b600082825260208201905092915050565b6000612b1a82612a31565b612b248185612afe565b9350612b34818560208601612a4d565b612b3d81612793565b840191505092915050565b6000612b548383612b0f565b905092915050565b6000602082019050919050565b6000612b7482612ad2565b612b7e8185612add565b935083602082028501612b9085612aee565b8060005b85811015612bcc5784840389528151612bad8582612b48565b9450612bb883612b5c565b925060208a01995050600181019050612b94565b50829750879550505050505092915050565b60006020820190508181036000830152612bf88184612b69565b905092915050565b60008115159050919050565b612c1581612c00565b82525050565b6000602082019050612c306000830184612c0c565b92915050565b612c3f816128ef565b82525050565b612c4e81612741565b82525050565b60006080830160008301518482036000860152612c718282612b0f565b91505060208301518482036020860152612c8b8282612b0f565b9150506040830151612ca06040860182612c36565b506060830151612cb36060860182612c45565b508091505092915050565b60006020820190508181036000830152612cd88184612c54565b905092915050565b6000606083016000830151612cf86000860182612c36565b5060208301518482036020860152612d108282612b0f565b9150506040830151612d256040860182612c45565b508091505092915050565b60006020820190508181036000830152612d4a8184612ce0565b905092915050565b60008060408385031215612d6957612d6861277f565b5b600083013567ffffffffffffffff811115612d8757612d86612784565b5b612d93858286016128a1565b925050602083013567ffffffffffffffff811115612db457612db3612784565b5b612dc0858286016128a1565b9150509250929050565b600067ffffffffffffffff821115612de557612de46127a4565b5b602082029050602081019050919050565b600080fd5b6000612e0e612e0984612dca565b612804565b90508083825260208201905060208402830185811115612e3157612e30612df6565b5b835b81811015612e7857803567ffffffffffffffff811115612e5657612e55612789565b5b808601612e6389826128a1565b85526020850194505050602081019050612e33565b5050509392505050565b600082601f830112612e9757612e96612789565b5b8135612ea7848260208601612dfb565b91505092915050565b60008060408385031215612ec757612ec661277f565b5b600083013567ffffffffffffffff811115612ee557612ee4612784565b5b612ef1858286016128a1565b925050602083013567ffffffffffffffff811115612f1257612f11612784565b5b612f1e85828601612e82565b9150509250929050565b600081519050919050565b600082825260208201905092915050565b6000819050602082019050919050565b6000612f608383612c45565b60208301905092915050565b6000602082019050919050565b6000612f8482612f28565b612f8e8185612f33565b9350612f9983612f44565b8060005b83811015612fca578151612fb18882612f54565b9750612fbc83612f6c565b925050600181019050612f9d565b5085935050505092915050565b60006020820190508181036000830152612ff18184612f79565b905092915050565b61300281612741565b811461300d57600080fd5b50565b60008135905061301f81612ff9565b92915050565b60006020828403121561303b5761303a61277f565b5b600061304984828501613010565b91505092915050565b60008060008060008060c0878903121561306f5761306e61277f565b5b600061307d89828a01613010565b965050602087013567ffffffffffffffff81111561309e5761309d612784565b5b6130aa89828a016128a1565b955050604087013567ffffffffffffffff8111156130cb576130ca612784565b5b6130d789828a016128a1565b945050606087013567ffffffffffffffff8111156130f8576130f7612784565b5b61310489828a016128a1565b935050608061311589828a01612918565b92505060a087013567ffffffffffffffff81111561313657613135612784565b5b61314289828a016128a1565b9150509295509295509295565b7f50686f746f2049442063616e277420626520656d707479210000000000000000600082015250565b6000613185601883612a3c565b91506131908261314f565b602082019050919050565b600060208201905081810360008301526131b481613178565b9050919050565b7f46696c6520706174682063616e277420626520656d7074792100000000000000600082015250565b60006131f1601983612a3c565b91506131fc826131bb565b602082019050919050565b60006020820190508181036000830152613220816131e4565b9050919050565b7f4d65746120706174682063616e277420626520656d7074792100000000000000600082015250565b600061325d601983612a3c565b915061326882613227565b602082019050919050565b6000602082019050818103600083015261328c81613250565b9050919050565b7f50686f746f20494420616c726561647920657869737465642100000000000000600082015250565b60006132c9601983612a3c565b91506132d482613293565b602082019050919050565b600060208201905081810360008301526132f8816132bc565b9050919050565b7f4e487b7100000000000000000000000000000000000000000000000000000000600052602260045260246000fd5b6000600282049050600182168061334657607f821691505b602082108103613359576133586132ff565b5b50919050565b60008190508160005260206000209050919050565b60006020601f8301049050919050565b600082821b905092915050565b6000600883026133c17fffffffffffffffffffffffffffffffffffffffffffffffffffffffffffffffff82613384565b6133cb8683613384565b95508019841693508086168417925050509392505050565b6000819050919050565b60006134086134036133fe84612741565b6133e3565b612741565b9050919050565b6000819050919050565b613422836133ed565b61343661342e8261340f565b848454613391565b825550505050565b600090565b61344b61343e565b613456818484613419565b505050565b5b8181101561347a5761346f600082613443565b60018101905061345c565b5050565b601f8211156134bf576134908161335f565b61349984613374565b810160208510156134a8578190505b6134bc6134b485613374565b83018261345b565b50505b505050565b600082821c905092915050565b60006134e2600019846008026134c4565b1980831691505092915050565b60006134fb83836134d1565b9150826002028217905092915050565b61351482612a31565b67ffffffffffffffff81111561352d5761352c6127a4565b5b613537825461332e565b61354282828561347e565b600060209050601f8311600181146135755760008415613563578287015190505b61356d85826134ef565b8655506135d5565b601f1984166135838661335f565b60005b828110156135ab57848901518255600182019150602085019450602081019050613586565b868310156135c857848901516135c4601f8916826134d1565b8355505b6001600288020188555050505b505050505050565b600081905092915050565b60006135f382612a31565b6135fd81856135dd565b935061360d818560208601612a4d565b80840191505092915050565b600061362582846135e8565b915081905092915050565b7f4e487b7100000000000000000000000000000000000000000000000000000000600052603260045260246000fd5b7f4e487b7100000000000000000000000000000000000000000000000000000000600052601160045260246000fd5b600061369982612741565b91507fffffffffffffffffffffffffffffffffffffffffffffffffffffffffffffffff82036136cb576136ca61365f565b5b600182019050919050565b7f596f7520617265206e6f7420616c6c6f77656420746f20776974686472617721600082015250565b600061370c602083612a3c565b9150613717826136d6565b602082019050919050565b6000602082019050818103600083015261373b816136ff565b9050919050565b7f536d61727420636f6e74726163742062616c616e636520697320656d70747921600082015250565b6000613778602083612a3c565b915061378382613742565b602082019050919050565b600060208201905081810360008301526137a78161376b565b9050919050565b7f556e617574686f72697a65642100000000000000000000000000000000000000600082015250565b60006137e4600d83612a3c565b91506137ef826137ae565b602082019050919050565b60006020820190508181036000830152613813816137d7565b9050919050565b7f43616e27742064656c657465206c6963656e7365642070686f746f2100000000600082015250565b6000613850601c83612a3c565b915061385b8261381a565b602082019050919050565b6000602082019050818103600083015261387f81613843565b9050919050565b600061389182612741565b915061389c83612741565b92508282039050818111156138b4576138b361365f565b5b92915050565b60006138c582612741565b91506138d083612741565b92508282019050808211156138e8576138e761365f565b5b92915050565b6000815490506138fd8161332e565b9050919050565b60008190508160005260206000209050919050565b8181036139275750506139ff565b613930826138ee565b67ffffffffffffffff811115613949576139486127a4565b5b613953825461332e565b61395e82828561347e565b6000601f83116001811461398d576000841561397b578287015490505b61398585826134ef565b8655506139f8565b601f19841661399b87613904565b96506139a68661335f565b60005b828110156139ce578489015482556001820191506001850194506020810190506139a9565b868310156139eb57848901546139e7601f8916826134d1565b8355505b6001600288020188555050505b5050505050505b565b7f4e487b7100000000000000000000000000000000000000000000000000000000600052603160045260246000fd5b7f55726c2063616e277420626520656d7074792100000000000000000000000000600082015250565b6000613a66601383612a3c565b9150613a7182613a30565b602082019050919050565b60006020820190508181036000830152613a9581613a59565b9050919050565b7f4c6963656e73652049442063616e277420626520656d70747921000000000000600082015250565b6000613ad2601a83612a3c565b9150613add82613a9c565b602082019050919050565b60006020820190508181036000830152613b0181613ac5565b9050919050565b7f4c6963656e736520494420616c72656164792065786973746564210000000000600082015250565b6000613b3e601b83612a3c565b9150613b4982613b08565b602082019050919050565b60006020820190508181036000830152613b6d81613b31565b9050919050565b7f596f75722062616c616e6365206973206e6f7420656e6f756768210000000000600082015250565b6000613baa601b83612a3c565b9150613bb582613b74565b602082019050919050565b60006020820190508181036000830152613bd981613b9d565b9050919050565b7f5472616e736665722076616c756520697320696e636f72726563742100000000600082015250565b6000613c16601c83612a3c565b9150613c2182613be0565b602082019050919050565b60006020820190508181036000830152613c4581613c09565b9050919050565b7f4c6963656e7365204944206e6f74206578697374210000000000000000000000600082015250565b6000613c82601583612a3c565b9150613c8d82613c4c565b602082019050919050565b60006020820190508181036000830152613cb181613c75565b9050919050565b60008154613cc58161332e565b613ccf81866135dd565b94506001821660008114613cea5760018114613cff57613d32565b60ff1983168652811515820286019350613d32565b613d088561335f565b60005b83811015613d2a57815481890152600182019150602081019050613d0b565b838801955050505b50505092915050565b6000613d478284613cb8565b91508190509291505056fea26469706673582212207026d9fab3910f7e2f8964d2c4bc4b856fdc7d6277a0f7b5266e0a071f8a34ee64736f6c63430008110033",
  "linkReferences": {},
  "deployedLinkReferences": {}
}